{
  "_format": "hh-sol-artifact-1",
  "contractName": "AirDrop",
  "sourceName": "contracts/AirDrop.sol",
  "abi": [
    {
      "inputs": [
        {
          "internalType": "bytes32",
          "name": "_root",
          "type": "bytes32"
        },
        {
          "internalType": "uint256",
          "name": "_rewardAmount",
          "type": "uint256"
        }
      ],
      "stateMutability": "nonpayable",
      "type": "constructor"
    },
    {
      "anonymous": false,
      "inputs": [
        {
          "indexed": true,
          "internalType": "address",
          "name": "owner",
          "type": "address"
        },
        {
          "indexed": true,
          "internalType": "address",
          "name": "spender",
          "type": "address"
        },
        {
          "indexed": false,
          "internalType": "uint256",
          "name": "value",
          "type": "uint256"
        }
      ],
      "name": "Approval",
      "type": "event"
    },
    {
      "anonymous": false,
      "inputs": [
        {
          "indexed": true,
          "internalType": "address",
          "name": "from",
          "type": "address"
        },
        {
          "indexed": true,
          "internalType": "address",
          "name": "to",
          "type": "address"
        },
        {
          "indexed": false,
          "internalType": "uint256",
          "name": "value",
          "type": "uint256"
        }
      ],
      "name": "Transfer",
      "type": "event"
    },
    {
      "inputs": [
        {
          "internalType": "address",
          "name": "owner",
          "type": "address"
        },
        {
          "internalType": "address",
          "name": "spender",
          "type": "address"
        }
      ],
      "name": "allowance",
      "outputs": [
        {
          "internalType": "uint256",
          "name": "",
          "type": "uint256"
        }
      ],
      "stateMutability": "view",
      "type": "function"
    },
    {
      "inputs": [
        {
          "internalType": "address",
          "name": "spender",
          "type": "address"
        },
        {
          "internalType": "uint256",
          "name": "amount",
          "type": "uint256"
        }
      ],
      "name": "approve",
      "outputs": [
        {
          "internalType": "bool",
          "name": "",
          "type": "bool"
        }
      ],
      "stateMutability": "nonpayable",
      "type": "function"
    },
    {
      "inputs": [
        {
          "internalType": "address",
          "name": "account",
          "type": "address"
        }
      ],
      "name": "balanceOf",
      "outputs": [
        {
          "internalType": "uint256",
          "name": "",
          "type": "uint256"
        }
      ],
      "stateMutability": "view",
      "type": "function"
    },
    {
      "inputs": [
        {
          "internalType": "bytes32[]",
          "name": "_proof",
          "type": "bytes32[]"
        }
      ],
      "name": "claim",
      "outputs": [],
      "stateMutability": "nonpayable",
      "type": "function"
    },
    {
      "inputs": [],
      "name": "decimals",
      "outputs": [
        {
          "internalType": "uint8",
          "name": "",
          "type": "uint8"
        }
      ],
      "stateMutability": "view",
      "type": "function"
    },
    {
      "inputs": [
        {
          "internalType": "address",
          "name": "spender",
          "type": "address"
        },
        {
          "internalType": "uint256",
          "name": "subtractedValue",
          "type": "uint256"
        }
      ],
      "name": "decreaseAllowance",
      "outputs": [
        {
          "internalType": "bool",
          "name": "",
          "type": "bool"
        }
      ],
      "stateMutability": "nonpayable",
      "type": "function"
    },
    {
      "inputs": [
        {
          "internalType": "address",
          "name": "spender",
          "type": "address"
        },
        {
          "internalType": "uint256",
          "name": "addedValue",
          "type": "uint256"
        }
      ],
      "name": "increaseAllowance",
      "outputs": [
        {
          "internalType": "bool",
          "name": "",
          "type": "bool"
        }
      ],
      "stateMutability": "nonpayable",
      "type": "function"
    },
    {
      "inputs": [],
      "name": "name",
      "outputs": [
        {
          "internalType": "string",
          "name": "",
          "type": "string"
        }
      ],
      "stateMutability": "view",
      "type": "function"
    },
    {
      "inputs": [],
      "name": "rewardAmount",
      "outputs": [
        {
          "internalType": "uint256",
          "name": "",
          "type": "uint256"
        }
      ],
      "stateMutability": "view",
      "type": "function"
    },
    {
      "inputs": [],
      "name": "root",
      "outputs": [
        {
          "internalType": "bytes32",
          "name": "",
          "type": "bytes32"
        }
      ],
      "stateMutability": "view",
      "type": "function"
    },
    {
      "inputs": [],
      "name": "symbol",
      "outputs": [
        {
          "internalType": "string",
          "name": "",
          "type": "string"
        }
      ],
      "stateMutability": "view",
      "type": "function"
    },
    {
      "inputs": [],
      "name": "totalSupply",
      "outputs": [
        {
          "internalType": "uint256",
          "name": "",
          "type": "uint256"
        }
      ],
      "stateMutability": "view",
      "type": "function"
    },
    {
      "inputs": [
        {
          "internalType": "address",
          "name": "to",
          "type": "address"
        },
        {
          "internalType": "uint256",
          "name": "amount",
          "type": "uint256"
        }
      ],
      "name": "transfer",
      "outputs": [
        {
          "internalType": "bool",
          "name": "",
          "type": "bool"
        }
      ],
      "stateMutability": "nonpayable",
      "type": "function"
    },
    {
      "inputs": [
        {
          "internalType": "address",
          "name": "from",
          "type": "address"
        },
        {
          "internalType": "address",
          "name": "to",
          "type": "address"
        },
        {
          "internalType": "uint256",
          "name": "amount",
          "type": "uint256"
        }
      ],
      "name": "transferFrom",
      "outputs": [
        {
          "internalType": "bool",
          "name": "",
          "type": "bool"
        }
      ],
      "stateMutability": "nonpayable",
      "type": "function"
    }
  ],
  "bytecode": "0x60c06040523480156200001157600080fd5b5060405162001dcf38038062001dcf8339818101604052810190620000379190620001cd565b6040518060400160405280600781526020017f41697244726f70000000000000000000000000000000000000000000000000008152506040518060400160405280600281526020017f41440000000000000000000000000000000000000000000000000000000000008152508160039080519060200190620000bb929190620000ef565b508060049080519060200190620000d4929190620000ef565b50505081608081815250508060a081815250505050620002bb565b828054620000fd9062000222565b90600052602060002090601f0160209004810192826200012157600085556200016d565b82601f106200013c57805160ff19168380011785556200016d565b828001600101855582156200016d579182015b828111156200016c5782518255916020019190600101906200014f565b5b5090506200017c919062000180565b5090565b5b808211156200019b57600081600090555060010162000181565b5090565b600081519050620001b08162000287565b92915050565b600081519050620001c781620002a1565b92915050565b60008060408385031215620001e157600080fd5b6000620001f1858286016200019f565b92505060206200020485828601620001b6565b9150509250929050565b6000819050919050565b6000819050919050565b600060028204905060018216806200023b57607f821691505b6020821081141562000252576200025162000258565b5b50919050565b7f4e487b7100000000000000000000000000000000000000000000000000000000600052602260045260246000fd5b62000292816200020e565b81146200029e57600080fd5b50565b620002ac8162000218565b8114620002b857600080fd5b50565b60805160a051611ae0620002ef60003960008181610858015261092e0152600081816107ee015261090a0152611ae06000f3fe608060405234801561001057600080fd5b50600436106100ea5760003560e01c806395d89b411161008c578063b391c50811610066578063b391c50814610287578063dd62ed3e146102a3578063ebf0c717146102d3578063f7b2a7be146102f1576100ea565b806395d89b4114610209578063a457c2d714610227578063a9059cbb14610257576100ea565b806323b872dd116100c857806323b872dd1461015b578063313ce5671461018b57806339509351146101a957806370a08231146101d9576100ea565b806306fdde03146100ef578063095ea7b31461010d57806318160ddd1461013d575b600080fd5b6100f761030f565b6040516101049190611447565b60405180910390f35b6101276004803603810190610122919061118b565b6103a1565b6040516101349190611411565b60405180910390f35b6101456103c4565b60405161015291906115a9565b60405180910390f35b6101756004803603810190610170919061113c565b6103ce565b6040516101829190611411565b60405180910390f35b6101936103fd565b6040516101a091906115c4565b60405180910390f35b6101c360048036038101906101be919061118b565b610406565b6040516101d09190611411565b60405180910390f35b6101f360048036038101906101ee91906110d7565b6104b0565b60405161020091906115a9565b60405180910390f35b6102116104f8565b60405161021e9190611447565b60405180910390f35b610241600480360381019061023c919061118b565b61058a565b60405161024e9190611411565b60405180910390f35b610271600480360381019061026c919061118b565b610674565b60405161027e9190611411565b60405180910390f35b6102a1600480360381019061029c91906111c7565b610697565b005b6102bd60048036038101906102b89190611100565b610881565b6040516102ca91906115a9565b60405180910390f35b6102db610908565b6040516102e8919061142c565b60405180910390f35b6102f961092c565b60405161030691906115a9565b60405180910390f35b60606003805461031e906116e3565b80601f016020809104026020016040519081016040528092919081815260200182805461034a906116e3565b80156103975780601f1061036c57610100808354040283529160200191610397565b820191906000526020600020905b81548152906001019060200180831161037a57829003601f168201915b5050505050905090565b6000806103ac610950565b90506103b9818585610958565b600191505092915050565b6000600254905090565b6000806103d9610950565b90506103e6858285610b23565b6103f1858585610baf565b60019150509392505050565b60006012905090565b600080610411610950565b90506104a5818585600160008673ffffffffffffffffffffffffffffffffffffffff1673ffffffffffffffffffffffffffffffffffffffff16815260200190815260200160002060008973ffffffffffffffffffffffffffffffffffffffff1673ffffffffffffffffffffffffffffffffffffffff168152602001908152602001600020546104a091906115fb565b610958565b600191505092915050565b60008060008373ffffffffffffffffffffffffffffffffffffffff1673ffffffffffffffffffffffffffffffffffffffff168152602001908152602001600020549050919050565b606060048054610507906116e3565b80601f0160208091040260200160405190810160405280929190818152602001828054610533906116e3565b80156105805780601f1061055557610100808354040283529160200191610580565b820191906000526020600020905b81548152906001019060200180831161056357829003601f168201915b5050505050905090565b600080610595610950565b90506000600160008373ffffffffffffffffffffffffffffffffffffffff1673ffffffffffffffffffffffffffffffffffffffff16815260200190815260200160002060008673ffffffffffffffffffffffffffffffffffffffff1673ffffffffffffffffffffffffffffffffffffffff1681526020019081526020016000205490508381101561065b576040517f08c379a000000000000000000000000000000000000000000000000000000000815260040161065290611569565b60405180910390fd5b6106688286868403610958565b60019250505092915050565b60008061067f610950565b905061068c818585610baf565b600191505092915050565b600560003373ffffffffffffffffffffffffffffffffffffffff1673ffffffffffffffffffffffffffffffffffffffff16815260200190815260200160002060009054906101000a900460ff1615610724576040517f08c379a000000000000000000000000000000000000000000000000000000000815260040161071b90611529565b60405180910390fd5b6001600560003373ffffffffffffffffffffffffffffffffffffffff1673ffffffffffffffffffffffffffffffffffffffff16815260200190815260200160002060006101000a81548160ff02191690831515021790555060003360405160200161078f91906113f6565b604051602081830303815290604052805190602001209050610813838380806020026020016040519081016040528093929190818152602001838360200280828437600081840152601f19601f820116905080830192505050505050507f000000000000000000000000000000000000000000000000000000000000000083610e30565b610852576040517f08c379a0000000000000000000000000000000000000000000000000000000008152600401610849906114a9565b60405180910390fd5b61087c337f0000000000000000000000000000000000000000000000000000000000000000610e47565b505050565b6000600160008473ffffffffffffffffffffffffffffffffffffffff1673ffffffffffffffffffffffffffffffffffffffff16815260200190815260200160002060008373ffffffffffffffffffffffffffffffffffffffff1673ffffffffffffffffffffffffffffffffffffffff16815260200190815260200160002054905092915050565b7f000000000000000000000000000000000000000000000000000000000000000081565b7f000000000000000000000000000000000000000000000000000000000000000081565b600033905090565b600073ffffffffffffffffffffffffffffffffffffffff168373ffffffffffffffffffffffffffffffffffffffff1614156109c8576040517f08c379a00000000000000000000000000000000000000000000000000000000081526004016109bf90611549565b60405180910390fd5b600073ffffffffffffffffffffffffffffffffffffffff168273ffffffffffffffffffffffffffffffffffffffff161415610a38576040517f08c379a0000000000000000000000000000000000000000000000000000000008152600401610a2f90611489565b60405180910390fd5b80600160008573ffffffffffffffffffffffffffffffffffffffff1673ffffffffffffffffffffffffffffffffffffffff16815260200190815260200160002060008473ffffffffffffffffffffffffffffffffffffffff1673ffffffffffffffffffffffffffffffffffffffff168152602001908152602001600020819055508173ffffffffffffffffffffffffffffffffffffffff168373ffffffffffffffffffffffffffffffffffffffff167f8c5be1e5ebec7d5bd14f71427d1e84f3dd0314c0f7b2291e5b200ac8c7c3b92583604051610b1691906115a9565b60405180910390a3505050565b6000610b2f8484610881565b90507fffffffffffffffffffffffffffffffffffffffffffffffffffffffffffffffff8114610ba95781811015610b9b576040517f08c379a0000000000000000000000000000000000000000000000000000000008152600401610b92906114c9565b60405180910390fd5b610ba88484848403610958565b5b50505050565b600073ffffffffffffffffffffffffffffffffffffffff168373ffffffffffffffffffffffffffffffffffffffff161415610c1f576040517f08c379a0000000000000000000000000000000000000000000000000000000008152600401610c1690611509565b60405180910390fd5b600073ffffffffffffffffffffffffffffffffffffffff168273ffffffffffffffffffffffffffffffffffffffff161415610c8f576040517f08c379a0000000000000000000000000000000000000000000000000000000008152600401610c8690611469565b60405180910390fd5b610c9a838383610fa7565b60008060008573ffffffffffffffffffffffffffffffffffffffff1673ffffffffffffffffffffffffffffffffffffffff16815260200190815260200160002054905081811015610d20576040517f08c379a0000000000000000000000000000000000000000000000000000000008152600401610d17906114e9565b60405180910390fd5b8181036000808673ffffffffffffffffffffffffffffffffffffffff1673ffffffffffffffffffffffffffffffffffffffff16815260200190815260200160002081905550816000808573ffffffffffffffffffffffffffffffffffffffff1673ffffffffffffffffffffffffffffffffffffffff1681526020019081526020016000206000828254610db391906115fb565b925050819055508273ffffffffffffffffffffffffffffffffffffffff168473ffffffffffffffffffffffffffffffffffffffff167fddf252ad1be2c89b69c2b068fc378daa952ba7f163c4a11628f55a4df523b3ef84604051610e1791906115a9565b60405180910390a3610e2a848484610fac565b50505050565b600082610e3d8584610fb1565b1490509392505050565b600073ffffffffffffffffffffffffffffffffffffffff168273ffffffffffffffffffffffffffffffffffffffff161415610eb7576040517f08c379a0000000000000000000000000000000000000000000000000000000008152600401610eae90611589565b60405180910390fd5b610ec360008383610fa7565b8060026000828254610ed591906115fb565b92505081905550806000808473ffffffffffffffffffffffffffffffffffffffff1673ffffffffffffffffffffffffffffffffffffffff1681526020019081526020016000206000828254610f2a91906115fb565b925050819055508173ffffffffffffffffffffffffffffffffffffffff16600073ffffffffffffffffffffffffffffffffffffffff167fddf252ad1be2c89b69c2b068fc378daa952ba7f163c4a11628f55a4df523b3ef83604051610f8f91906115a9565b60405180910390a3610fa360008383610fac565b5050565b505050565b505050565b60008082905060005b8451811015611041576000858281518110610ffe577f4e487b7100000000000000000000000000000000000000000000000000000000600052603260045260246000fd5b6020026020010151905080831161102057611019838261104c565b925061102d565b61102a818461104c565b92505b50808061103990611715565b915050610fba565b508091505092915050565b600082600052816020526040600020905092915050565b60008135905061107281611a7c565b92915050565b60008083601f84011261108a57600080fd5b8235905067ffffffffffffffff8111156110a357600080fd5b6020830191508360208202830111156110bb57600080fd5b9250929050565b6000813590506110d181611a93565b92915050565b6000602082840312156110e957600080fd5b60006110f784828501611063565b91505092915050565b6000806040838503121561111357600080fd5b600061112185828601611063565b925050602061113285828601611063565b9150509250929050565b60008060006060848603121561115157600080fd5b600061115f86828701611063565b935050602061117086828701611063565b9250506040611181868287016110c2565b9150509250925092565b6000806040838503121561119e57600080fd5b60006111ac85828601611063565b92505060206111bd858286016110c2565b9150509250929050565b600080602083850312156111da57600080fd5b600083013567ffffffffffffffff8111156111f457600080fd5b61120085828601611078565b92509250509250929050565b61121d61121882611651565b61175e565b82525050565b61122c81611663565b82525050565b61123b8161166f565b82525050565b600061124c826115df565b61125681856115ea565b93506112668185602086016116b0565b61126f816117e0565b840191505092915050565b60006112876023836115ea565b9150611292826117fe565b604082019050919050565b60006112aa6022836115ea565b91506112b58261184d565b604082019050919050565b60006112cd6016836115ea565b91506112d88261189c565b602082019050919050565b60006112f0601d836115ea565b91506112fb826118c5565b602082019050919050565b60006113136026836115ea565b915061131e826118ee565b604082019050919050565b60006113366025836115ea565b91506113418261193d565b604082019050919050565b60006113596018836115ea565b91506113648261198c565b602082019050919050565b600061137c6024836115ea565b9150611387826119b5565b604082019050919050565b600061139f6025836115ea565b91506113aa82611a04565b604082019050919050565b60006113c2601f836115ea565b91506113cd82611a53565b602082019050919050565b6113e181611699565b82525050565b6113f0816116a3565b82525050565b6000611402828461120c565b60148201915081905092915050565b60006020820190506114266000830184611223565b92915050565b60006020820190506114416000830184611232565b92915050565b600060208201905081810360008301526114618184611241565b905092915050565b600060208201905081810360008301526114828161127a565b9050919050565b600060208201905081810360008301526114a28161129d565b9050919050565b600060208201905081810360008301526114c2816112c0565b9050919050565b600060208201905081810360008301526114e2816112e3565b9050919050565b6000602082019050818103600083015261150281611306565b9050919050565b6000602082019050818103600083015261152281611329565b9050919050565b600060208201905081810360008301526115428161134c565b9050919050565b600060208201905081810360008301526115628161136f565b9050919050565b6000602082019050818103600083015261158281611392565b9050919050565b600060208201905081810360008301526115a2816113b5565b9050919050565b60006020820190506115be60008301846113d8565b92915050565b60006020820190506115d960008301846113e7565b92915050565b600081519050919050565b600082825260208201905092915050565b600061160682611699565b915061161183611699565b9250827fffffffffffffffffffffffffffffffffffffffffffffffffffffffffffffffff0382111561164657611645611782565b5b828201905092915050565b600061165c82611679565b9050919050565b60008115159050919050565b6000819050919050565b600073ffffffffffffffffffffffffffffffffffffffff82169050919050565b6000819050919050565b600060ff82169050919050565b60005b838110156116ce5780820151818401526020810190506116b3565b838111156116dd576000848401525b50505050565b600060028204905060018216806116fb57607f821691505b6020821081141561170f5761170e6117b1565b5b50919050565b600061172082611699565b91507fffffffffffffffffffffffffffffffffffffffffffffffffffffffffffffffff82141561175357611752611782565b5b600182019050919050565b600061176982611770565b9050919050565b600061177b826117f1565b9050919050565b7f4e487b7100000000000000000000000000000000000000000000000000000000600052601160045260246000fd5b7f4e487b7100000000000000000000000000000000000000000000000000000000600052602260045260246000fd5b6000601f19601f8301169050919050565b60008160601b9050919050565b7f45524332303a207472616e7366657220746f20746865207a65726f206164647260008201527f6573730000000000000000000000000000000000000000000000000000000000602082015250565b7f45524332303a20617070726f766520746f20746865207a65726f20616464726560008201527f7373000000000000000000000000000000000000000000000000000000000000602082015250565b7f496e636f7272656374206d65726b6c652070726f6f6600000000000000000000600082015250565b7f45524332303a20696e73756666696369656e7420616c6c6f77616e6365000000600082015250565b7f45524332303a207472616e7366657220616d6f756e742065786365656473206260008201527f616c616e63650000000000000000000000000000000000000000000000000000602082015250565b7f45524332303a207472616e736665722066726f6d20746865207a65726f20616460008201527f6472657373000000000000000000000000000000000000000000000000000000602082015250565b7f416c726561647920636c61696d6564206169722064726f700000000000000000600082015250565b7f45524332303a20617070726f76652066726f6d20746865207a65726f2061646460008201527f7265737300000000000000000000000000000000000000000000000000000000602082015250565b7f45524332303a2064656372656173656420616c6c6f77616e63652062656c6f7760008201527f207a65726f000000000000000000000000000000000000000000000000000000602082015250565b7f45524332303a206d696e7420746f20746865207a65726f206164647265737300600082015250565b611a8581611651565b8114611a9057600080fd5b50565b611a9c81611699565b8114611aa757600080fd5b5056fea2646970667358221220cfd5e78c7c969e7d9d8a82dc8f54ab1b4edda3ea944c200eb4badd79027b695664736f6c63430008040033",
  "linkReferences": {},
  "deployedLinkReferences": {}
}